:040000000200543274
:03000B0002021FCF
:100010000000E2FBEAF2802C0000E0FBEAF0802422
:10002000E6B50202EBF62200E2B50202EBF2220094
:10003000E0B50202EBF02230F6E0A88220F5D3EA28
:10004000C6F582228B822230F6E6A88220F5D9807E
:01005000CFE0
:1000AD0075080C75090C750A00750B00750C00753B
:1000BD000D00750E00E4F50FF510F511F512F513A1
:1000CD00F514751501751601751701751801D20016
:0300DD00020051CD
:0300510002036C3B
:1000E000AF0975F00AEF84F50BAF0975F00AEF84DC
:1000F000AFF08F0CAF0A75F00AEF84F50DAF0A75FB
:10010000F00AEF84AFF08F0E22050A74C4250A505E
:1001100019750A00050974C42509500E75090005F2
:100120000874E8250850037508000200E0D2C6D222
:10013000C1D2C5D2C422AF82C00712012DD007EFB1
:1001400024FC4019EF2F90014A7380068007800835
:100150008009C2C422C2C522C2C122C2C622AF8245
:100160007E00EF30E0027E80EF30E103430620EFB7
:1001700030E203430602EF30E303430608EF30E4C6
:1001800003430610EF30E503430640EF30E6034338
:100190000601EF30E7034306048E822212015E85DA
:1001A00082A022AF827401B51207BF02005002D3B1
:1001B000227402B5120CBF02004007BF04005002B7
:1001C000D322C32212012D7582FF12019CE5112456
:1001D0000BF9E790038A93FF7401B5110353077F6E
:1001E000E512601120000E851182C0071201A3D014
:1001F0000750027FFF8F8212019C85118212013607
:10020000051174FC25115003751100225389F04328
:100210008901758CFC758A18D2A9D2AFD28C22C004
:1002200021C0E0C0F0C082C083C007C006C005C0C6
:1002300004C003C002C001C000C0D075D000758CDE
:10024000FC758A181201C40513E4B513020514C322
:10025000E51394FAE51494004007E4F513F514B29D
:1002600000050FE4B50F020510C3E50F94E8E51093
:1002700094034008E4F50FF510120109D0D0D00026
:10028000D001D002D003D004D005D006D007D0834F
:10029000D082D0F0D0E0D02132A2B3E433FFA2B5B7
:1002A000E433FEA2B6E433FDA2B7E433FCEF7016EC
:1002B000E51560120512E51224FD5003751200E4E5
:1002C000F513F514D200EE7039E51660357401B5FA
:1002D000120D050974C425095015750900801074A4
:1002E00002B5120B050A74C4250A5003750A00C032
:1002F00007C006C005C0041200E0D004D005D00637
:10030000D007ED7039E51760357401B5120DE509B8
:10031000700575093B8014150980107402B5120B25
:10032000E50A7005750A3B8002150AC007C006C0C1
:1003300005C0041200E0D004D005D006D007EC7050
:1003400022E518601EE4F50AF512F513F514D20043
:10035000C007C006C005C0041200E0D004D005D01C
:1003600006D0078F158E168D178C182243BB70751B
:1003700082FF12019C12012D43B0E81200E012022C
:060380000C12029980FB43
:0A038A00C0F9A4B0999282F88090A7
:06008300E478FFF6D8FD51
:100061007900E94400601B7A00900394780175A03F
:1000710000E493F2A308B8000205A0D9F4DAF275FE
:02008100A0FFDE
:100089007800E84400600A790175A000E4F309D812
:10009900FC7800E84400600C7900900001E4F0A3CA
:0400A900D8FCD9FAAC
:0D005400758121120386E5826003020051D0
:04038600758200225A
:00000001FF
