:040000000200543274
:03000B000201D11E
:200010000000E2FBEAF2802C0000E0FBEAF08024E6B50202EBF62200E2B50202EBF22200D6
:20003000E0B50202EBF02230F6E0A88220F5D3EAC6F582228B822230F6E6A88220F5D980E6
:01005000CFE0
:2000AD00750800750900750A00750B00750C00750D00750E00750F0075100075110075129D
:2000CD0000751300751400751500751600E4F517F518F519F51AF51BF51CF51DF51E751FF9
:0400ED00FF020051BD
:030051000203A8FF
:2000F100E582FF24F64012EF9003C093FEE5226003430604EEF4F58222BF0B047582FE2233
:200111007582FF2243C0722243BB707595007596FF53B38D43B47275A0FF020115AF12753F
:20013100F00AEF84F508AF1275F00AEF84AFF08F09750A0B85130B750C00750D00750E00B7
:20015100750F0022AF1575F00AEF84F508AF1575F00AEF84AFF08F09AF1675F00AEF84F5CC
:200171000AAF1675F00AEF84AFF08F0B750C00750D01750E00750F00227403B51007D283BF
:20019100D282D28122E5117011E51E6006C283D2828004D283C282D281227401B51107C276
:2001B10083C282D28122D283D282D281225389F0438901758CFC758A18D2A9D2AFD28C22AB
:2001D100C021C0E0C0F0C082C083C007C006C005C004C003C002C001C000C0D075D00075F2
:2001F1008CFC758A180517E4B517020518C3E5179464E5189400401BE4F517F51805137438
:20021100F62513500E7513000512749C251250037512000519E4B51902051AC3E51994E853
:20023100E51A94034026E4F519F51A051674C425165019751600051574C42515500E7515BA
:2002510000051474E825145003751400051BE4B51B02051CC3E51B94F4E51C94014010E4F7
:20027100F51BF51CE51EB401009200E433F51E12018A12011575A0FF7401B5100512012E7F
:2002910080227402B51005120155801875080A75090A750A0A750B0A750C00750D00750EC3
:2002B10000750F007401B5100280057402B51023E51D2408F98782E51D240CF98722120074
:2002D100F18582A0747245C0FFE51D9003CA93F45FF5C0051D74FC251D5003751D00D0D038
:2002F100D000D001D002D003D004D005D006D007D083D082D0F0D0E0D02132AE82AF837C3B
:20031100007D00C3EC9EED9F50147A6E7B001ABAFF011BEA4B70F70CBC00E80D80E5227F61
:20033100FF20B3047F01801320B5047F02800C20B6047F03800520B7027F04BFFF0280441C
:2003510074FFB51F3F90000AC00712030CD007BF011320B310751000051174FD2511502441
:20037100751100801FBF020820B5057510018014BF030820B6057510028009BF040620B735
:200391000375100330B30D30B50A30B60730B704751FFF228F1F227580FF120119751000E0
:0B03B1007511001201BE12033080FB2A
:0E03C000FA22B9AB63CBDBA2FBEB10200240AC
:06008300E478FFF6D8FD51
:200061007900E94400601B7A009003CE780175A000E493F2A308B8000205A0D9F4DAF27574
:02008100A0FFDE
:200089007800E84400600A790175A000E4F309D8FC7800E84400600C7900900001E4F0A375
:0400A900D8FCD9FAAC
:0D0054007581221203BCE582600302005199
:0403BC007582002224
:00000001FF
